:020000040800F2
:10000000380400209D010008B30A00083D090008DB
:10001000B10A0008050700082512000800000000CA
:10002000000000000000000000000000550C000867
:100030000707000800000000590B000831100008F5
:1000400035120008B7010008B7010008B701000821
:10005000B7010008B7010008B7010008B7010008A0
:10006000B7010008B7010008B7010008B701000890
:10007000B7010008B7010008B7010008B701000880
:10008000B7010008B7010008B7010008B701000870
:10009000B7010008B7010008B7010008B701000860
:1000A000B7010008B7010008B7010008B701000850
:1000B000B7010008B7010008B7010008B701000840
:1000C000B7010008B7010008B7010008B701000830
:1000D000B701000891100008B7010008B701000837
:1000E000B7010008B7010008B7010008B701000810
:1000F000B7010008B7010008B7010008B701000800
:10010000B7010008B7010008B7010008B7010008EF
:10011000B7010008B7010008B7010008B7010008DF
:10012000B7010008B7010008B7010008B7010008CF
:10013000B7010008B7010008B7010008B7010008BF
:10014000B7010008B7010008B7010008B7010008AF
:10015000B7010008B7010008B7010008B70100089F
:10016000B7010008B7010008B7010008B70100088F
:10017000B7010008B7010008B7010008B70100087F
:10018000B7010008B7010008DFF80CD000F098FABA
:1001900000480047E11A000838040020064880475C
:1001A00006480047FEE7FEE7FEE7FEE7FEE7FEE75C
:1001B000FEE7FEE7FEE7FEE73510000889010008CC
:1001C0002DE9FE4F804681EA0300C00F0C460090E7
:1001D00021F0004123F00045B8EB0200A94105D20F
:1001E0004046214690461C460B46024623F00040FE
:1001F000104347D0270DC7F30A00C3F30A510290FA
:10020000401A019040286BDAC3F3130040F4801BBE
:100210000098924620B10023D2EB030A63EB0B0B4C
:1002200001985946C0F14002504600F025F90646B3
:100230000D4650465946019A00F02DF910EB080082
:100240006141002487EA115284EAE7731A4340D0DF
:10025000009A62B3019A012A4FEA075215DC001B8B
:1002600061EB02014FF0004202EA0752CDE9004281
:10027000001C41F5801132462B4600F064F903B0B2
:10028000BDE8F08F40462146F9E7001B61EB020113
:10029000001C41F5801300185B412018A2F50017DF
:1002A00047EB030140EAD570B6196D4111E06D08C6
:1002B0004FEA360645EAC0754FEA0752001B61EB6C
:1002C0000201001C41F5801149084FEA3000001975
:1002D000514132462B4603B0BDE8F04F00F024B93F
:1002E0000098012240000023D0EB020263EBE07390
:1002F000009821464FEAE074B8EB000061EB04017E
:10030000E9E783F000435BE781F0004158E72DE91E
:10031000FE4F81EA030404F0004421F00041009400
:100320004FF0000B23F0004350EA01045ED052EA84
:1003300003045BD0C3F30A54C1F30A552C44A4F25E
:10034000F3340194A0FB0254C1F3130141F4801172
:10035000C3F3130343F4801301FB024400FB034E79
:10036000840A970A44EA815447EA8357A4FB076842
:1003700002958D0A05FB07854FEA932C04FB0C546C
:100380002705029D4FEA065847EA1637B5EB0805E0
:100390006EEB070C870E920E47EA811742EA831232
:1003A000A7FB0201B6EB0B0164EB00042B0D43EA43
:1003B0000C335E1844EB1C50DA465146E7FB020151
:1003C000C5F313044FEA0B3343EA14534FEA0432E4
:1003D000019C43EA0603A4F10C040294009CCDE9BD
:1003E00000B400F0B0F803B0BDE8F08F0020014683
:1003F000F9E70EB5C10F80EAE0700844CA07002192
:1004000040F233438DE80E000A460B4600F09BF89D
:1004100003B000BD01F0004330B421F0004150EAC8
:10042000010206D00A0DA2F56072C1F31301002A81
:1004300002DC30BC00207047440F44EAC104C10014
:10044000E01830BC00EBC25000F037B830B50B46B6
:10045000014600202022012409E021FA02F59D42F4
:1004600005D303FA02F5491B04FA02F52844151EC8
:10047000A2F10102F1DC30BD202A04DB203A00FAAF
:1004800002F1002070479140C2F1200320FA03F3EB
:10049000194390407047202A06DBCB17203A41FAD7
:1004A00002F043EAE07306E041FA02F3D040C2F101
:1004B000200291400843194670470029A8BF7047A1
:1004C000401C490008BF20F00100704710B4B0FA8A
:1004D00080FC00FA0CF050EA010404BF10BC704725
:1004E00049B1CCF1200421FA04F411FA0CF118BF3F
:1004F000012121430843A3EB0C01CB1D4FEA00610E
:100500004FEA102042BF002010BC704700EBC350E0
:1005100010440029A4BF10BC7047401C490008BF0C
:1005200020F0010010BC704710B5141E73F10004D8
:1005300008DA401C41F1000192185B411A4301D1D5
:1005400020F0010010BD2DE9F04D92469B4611B1FF
:10055000B1FA81F202E0B0FA80F220329046FFF761
:100560008BFF04460F4640EA0A0041EA0B0153465E
:100570005A46084313D0114653EA010019D0C8F176
:100580004002504600F0AEF805460E465046594629
:100590004246FFF771FF084305D0012004E02046E2
:1005A0003946BDE8F08D0020054346EAE0762C434D
:1005B00037430A986305E40AA0EB08000022FD0A0D
:1005C00044EA47540A3002D500200146E9E7010514
:1005D00010196941DDE9084500196941BDE8F04D90
:1005E000A2E72DE9F04D81EA030404F0004B21F06D
:1005F000004514464FF0000A23F0004150EA05027E
:1006000020D054EA01021DD0C5F30A570246C5F3B3
:100610001303C1F31300C1F30A5640F4801543F4E9
:100620008013A7EB0608101BD64608F2FD3873EBC3
:10063000050002D308F1010801E092185B41B8F10E
:10064000000F03DA00200146BDE8F08D00204FF4D2
:100650008011064684460EE0171B73EB050705D391
:10066000121B63EB050306434CEA010C49084FEAF1
:10067000300092185B4150EA0107EDD152EA0300C5
:1006800012D082EA040083EA0501084305D0101B5A
:10069000AB4106D20122002306E000224FF00043C6
:1006A00002E06FF0010253101AEB06004CEB085108
:1006B00010EB0A0041EB0B01BDE8F04DFFF734BF32
:1006C000064C074D06E0E06840F0010394E807009F
:1006D00098471034AC42F6D3FFF75AFD581C000877
:1006E000781C0008202A04DB203A21FA02F00021BD
:1006F000704721FA02F3D040C2F120029140084332
:1007000019467047FEE7704770B586B0012108466C
:1007100000F024FA0121102000F03CFA00248DF8AA
:10072000164001208DF8170002258DF815508DF820
:100730001450400204901C4E04A9304600F060F8AA
:100740008DF814506902049104A9304600F058F85D
:1007500007220A21304600F091F80722092130468D
:1007600000F08CF84FF4E1300090ADF80440ADF8A3
:100770000640ADF80840ADF80C400C20ADF80A007A
:100780000A4C6946204600F0E7FC00F093F901228C
:1007900040F22551204600F0C4FC0121204600F023
:1007A0008DFC06B070BD000000000240001001404A
:1007B00001B5009800280BD04CF250310020401CAD
:1007C0008842FCD30098401E009000980028F5D184
:1007D00008BD000010B50446214602A000F03AFD15
:1007E000204610BD494943206572726F72206F63C5
:1007F0006375722C20636F64653D25640000000002
:100800002DE9F041002201274FF0030C07FA02F511
:100810000B682B40AB422CD1066853000CFA03F452
:10082000A64306600E79D0F800809E4046EA08068E
:1008300006600E79012E01D0022E12D18668A643E1
:1008400086604E79D0F808809E4046EA08068660A9
:100850004668AE43466045688E799640B6B23543E9
:100860004560C568A543C560CC799C40C3681C43FE
:10087000C460521C102AC9D3BDE8F08110B54B07E3
:10088000DB0E9A40C90800EB8100016A0F249C40EE
:10089000A1430162016A1143016210BD30B587B006
:1008A0000121022000F05AF90121480500F064F905
:1008B0001F4D042208212846FFF7E0FF04220921EA
:1008C0002846FFF7DBFF01218DF81A108DF81B1069
:1008D00002248DF819408DF818400902059105A9E8
:1008E0002846FFF78DFF8DF818402002059005A9D6
:1008F0002846FFF785FF6002ADF80E000001ADF855
:1009000010000C4801904BF6FF70ADF80A00002073
:10091000ADF808007820ADF80C00074C01A920467E
:1009200000F04AF80121204600F021F807B030BD60
:1009300000040240801A060000540040FEE700292F
:1009400004D0018841F4806101807047018821F45E
:10095000806101807047034600209A8A1B8B1B042C
:100960001A4322F07F42914300D1012070470029B1
:1009700004D0018841F0010101807047018821F015
:10098000010101807047002904D0018841F4807181
:1009900001807047018821F480710180704700292F
:1009A00004D0018841F4007101807047018821F46E
:1009B00000710180704700007FB504460D46A08895
:1009C00020F03F06684600F0F3F802982749B0FB94
:1009D000F1F189B20E43A680228822F00102228022
:1009E000234B2A689A4209D85200B0FBF2F080B239
:1009F000042800D20420491C218423E0EB88A3F5BD
:100A00003F46FF3E0BD002EBC20303EB0212B0FBEA
:100A1000F2F080B240F48040020506D007E002EB1D
:100A20004202B0FBF2F080B2F6E740F0010040F481
:100A300000404FF4967251434FF47A72B1FBF2F1D9
:100A4000491C2184A083208840F001002080208858
:100A50004FF6F5310840A9886A8911430143218086
:100A6000A8892989084320817FBD000040420F00EA
:100A7000A0860100008AC0B27047002A02D041F06F
:100A8000010101E001F0FE0101827047018270471F
:100A900010B5142200213C2000F058FA0022022157
:100AA0003C2000F053FABDE810400A20FFF780BE5A
:100AB000FEE7704708B54FF4A06000F043F825202A
:100AC0008DF8000001208DF801008DF802008DF8EE
:100AD0000300684600F002F808BD000030B50F239F
:100AE000C27801250178002A1FD0154A126802F445
:100AF000E062C2F5E062C2F30722C2F10404D3400F
:100B00004278A24084781C401443220101F1E02184
:100B100081F80024007800F01F018D40400980001A
:100B200000F1E020C0F8005130BD01F01F00854009
:100B30004809800000F1E020C0F8805130BD00007D
:100B40000CED00E0024908430249086070470000CC
:100B50000000FA050CED00E070470000054A00298E
:100B600003D011680143116070471168814311601F
:100B70007047000030380240054A002903D0116850
:100B80000143116070471168814311607047000094
:100B900040380240054A002903D011680143116022
:100BA000704711688143116070470000443802406B
:100BB00070B5244B196801F00C01234C00291ED09C
:100BC000224E04291DD008291DD00460196801F0A7
:100BD000F00109091E4A545C0168E14041601C684B
:100BE00004F4E054A40A145D21FA04F484601B6840
:100BF00003F460435B0BD25CD140C16070BD046004
:100C0000E4E70660E2E70F4A121F1168C1F380555E
:100C1000116801F03F0135B1B6FBF1F11468C4F37E
:100C20008814614305E0B4FBF1F11468C4F388143F
:100C300061431268C2F30142521C5200B1FBF2F14F
:100C40000160C3E7083802400024F40040787D01C9
:100C5000000000207047000070B5374D482128463D
:100C600000F0DCFA0A20FFF7A3FD4D21284600F032
:100C7000D5FA0A20FFF79CFD4321284600F0CEFA62
:100C80000A20FFF795FD3521284600F0C7FA0A2013
:100C9000FFF78EFD3821284600F0C0FA0A20FFF742
:100CA00087FD3821284600F0B9FA0A20FFF780FDB9
:100CB0003321284600F0B2FA0A20FFF779FD4C21D3
:100CC000284600F0ABFA0A20FFF772FD3A212846C9
:100CD00000F0A4FA0A20FFF76BFD184C94ED050A0A
:100CE000BDEEC00A10EE100A00F0A4FEA17828465E
:100CF00000F094FA0A20FFF75BFD6178284600F0C7
:100D00008DFA0A20FFF754FD2178284600F086FA74
:100D10000A20FFF74DFD6021284600F07FFA0A20E7
:100D2000FFF746FD0D21284600F078FA2846BDE879
:100D300070400A2100F072BA00100140100000203B
:100D40000CB50022019200922749086840F48030D7
:100D500008604FF4A043086800F400300090019848
:100D6000401C0190009810B901989842F3D108688E
:100D7000800302D50120009000E000920098012835
:100D800031D119484030026842F080520260174861
:100D9000026842F440420260134808300268026070
:100DA000026842F400420260026842F4A05202600B
:100DB000021F0F4B13600A6842F080720A600A68D3
:100DC0009201FCD50B4A40F205711160016821F0D7
:100DD00003010160016841F0020101600168C1F393
:100DE00081010229FAD10CBD003802400070004098
:100DF00019544007003C02402DE9F0470746894658
:100E0000DFF8348101214046FFF7BDFD4C4D4B4ECC
:100E1000AE604C4C03E0A968491EA96071B121463F
:100E20004046FFF798FD0128F5D10022394640469B
:100E3000FFF723FEAE60DFF810A108E0BDE8F04741
:100E40000520FFF7C7BCA968491EA96079B15146C2
:100E50004046FFF780FD0128F5D14946C146484686
:100E6000FFF714FEDFF8E08008F1020808E0BDE8B3
:100E7000F0470620FFF7AEBCA968491EA96061B122
:100E800041464846FFF767FD0128F5D1C8460121D4
:100E90004046FFF778FDAE6008E0BDE8F047072068
:100EA000FFF798BCA968491EA96071B12146404668
:100EB000FFF751FD0128F5D1012239464046FFF7E1
:100EC000DCFDAE601F4C641C08E0BDE8F047082064
:100ED000FFF780BCAA68521EAA606AB1214640464C
:100EE000FFF739FD0128F5D100214046FFF727FD26
:100EF000AE60144C3F3408E0BDE8F0470920FFF72E
:100F000069BCAA68521EAA6082B121464046FFF71A
:100F100022FD0128F5D14046FFF7ACFD0446012132
:100F20004046FFF73CFD2046BDE8F087BDE8F047AE
:100F30000A20FFF74FBC000000540040FFFF0F00E5
:100F40001000002001000300820007002DE9F04797
:100F5000824689469046314E01213046FFF713FD07
:100F6000304C2F4DA560304F03E0A068401EA060BC
:100F700068B139463046FFF7EEFC0128F5D1002272
:100F800051463046FFF779FDA560284F08E0BDE8DF
:100F9000F0470120FFF71EBCA168491EA16069B19E
:100FA00039463046FFF7D7FC0128F5D1494630468F
:100FB000FFF76CFD37461D4EB61C08E0BDE8F04754
:100FC0000220FFF707BCA168491EA16059B1314654
:100FD0003846FFF7C0FC0128F5D141463846FFF7F7
:100FE00055FDA56008E0BDE8F0470320FFF7F2BB20
:100FF000A068401EA06060B131463846FFF7ABFCE8
:101000000128F5D101213846FFF7C9FC0020BDE8D1
:10101000F087BDE8F0470420FFF7DCBB0054004038
:10102000FFFF0F00100000200100030082000700F6
:101030007047000010B51248016841F4700101606A
:101040001048016841F0010101600E4A0021083298
:10105000116002680C4B1A400260031D0B4A1A60B3
:10106000026822F48022026006480C300160FFF71B
:1010700067FE03494FF000608039086010BD000032
:1010800088ED00E000380240FFFFF6FE103000243B
:1010900010B5094C40F22551204600F022F80028F6
:1010A00008D0204600F0B6F8C1B22046BDE8104096
:1010B00000F0B4B810BD000000100140002904D0B9
:1010C000818941F4005181817047818921F4005167
:1010D000818170470246002012880A4200D0012018
:1010E000704770B5002440F66A12C1F3421301F054
:1010F0001F05012606FA05F2012B0CD0022B0DD09C
:10110000838A1340090A8E40008830400BB100B139
:101110000124204670BD83891340F3E7038A1340FE
:10112000F0E710B540F66A13C1F3421301F01F0453
:101130000121A140012B07D0022B07D014303AB176
:1011400002680A43026010BD0C30F8E71030F6E781
:1011500002688A43026010BD7FB504460D46208AAE
:1011600020F44051E88808432082A08941F20C61B4
:101170008843A9882A8911436A8902431143A181BE
:10118000A08A20F44071A8890843A0826846FFF72E
:101190000FFD1E48844202D01D48844201D10398AD
:1011A00000E00298A189090408D500EBC00101EB19
:1011B000001029684900B0FBF1F007E000EBC00126
:1011C00001EB001029688900B0FBF1F06422B0FB4C
:1011D000F2F109010B096FF018056B4300EB830076
:1011E000A3891D044FF0320307D503EBC000B0FB09
:1011F000F2F000F00700084306E003EB0010B0FB3C
:10120000F2F000F00F00084320817FBD0010014084
:10121000001401408088C0F308007047C1F3080142
:1012200081807047FEE70000014900200860704798
:10123000082C004010B57F2000F004F8BDE81040F5
:10124000FFF7F2BF024900F07F000860704700001E
:10125000002C00400FB4054B10B503A9044A0298B6
:1012600000F036FB10BC5DF814FB0000BD1A00084E
:101270002800002003B401984100009850EAC120E2
:1012800018BF04204A0D18BF40F0010040F2FF7261
:10129000B2EB515F08BF40F00200012808BF0520F3
:1012A00002B070470000000070B59B482DED020BA6
:1012B0002DED068B079D25F00044A04218DC9748D1
:1012C000844202DC0AD1069840B19DED060BBDECCC
:1012D000068B02B0BDE8704000F0C6BA002DCCBF4E
:1012E0009FED8F0B9FED900BBDEC068B02B070BD98
:1012F0008F48A04215DD8F48A042D8BF4FF0FF3481
:1013000058DD9DED060B51EC100BFFF7B3FF0428E1
:1013100008BF00F0BDFA9DED060BBDEC068B02B0D8
:1013200070BD9DED060B51EC100B00F0BBFBCDE941
:10133000060181489FED828BA0423CDD8248A0429D
:101340001FDD00249FED82AB9DED060B53EC1A2BA5
:1013500051EC100BFEF734FF9DED060B41EC190B21
:1013600053EC1A2B51EC100BFEF7D1FF53EC182B5A
:10137000FEF7C7FF53EC192BFFF733F9CDE9060150
:1013800049E09DED060B012453EC182B51EC100B9A
:10139000FEF716FF9DED060B41EC190B53EC182BD5
:1013A00051EC100BFEF7ADFF53EC192BFFF719F9B9
:1013B000CDE906012FE06848A0421FDD02249FED21
:1013C000689B9DED060B53EC192B51EC100BFEF7AF
:1013D0009EFF53EC182BFEF7F3FE9DED060B41EC40
:1013E000180B53EC192B51EC100BFEF78AFF53EC42
:1013F000182BFFF7F6F8CDE906010CE09DED060B82
:10140000032453EC102B9FED580B51EC100BFFF7FE
:10141000E8F8CDE906019DED060B53EC102B51ECDD
:10142000100BFEF774FF41EC180B53EC182BFEF772
:101430006EFF41EC190B4E480621B0EE490AF0EE62
:10144000690A784400F094F953EC182B51EC100B16
:10145000FEF75DFF41EC180B4648B0EE490AF0EE8E
:10146000690A0521784400F083F953EC192B51ECFB
:10147000100BFEF74CFF41EC100B51EC180B53EC2A
:10148000102B002C0EDAFEF79BFE9DED061B53EC95
:10149000112BFEF73CFF9DED061B53EC112BFEF7C5
:1014A00033FF35E0FEF78CFE9DED061B53EC112B50
:1014B000FEF72DFF41EC100B2F48784400EBC400E1
:1014C00090ED001B51EC100B53EC112BFEF719FFA4
:1014D0009DED061B53EC112BFEF713FF41EC100B97
:1014E0002648784400EBC40090ED001B51EC100B33
:1014F00053EC112BFEF708FF41EC100B002DA2BF9F
:10150000BDEC068B02B070BD51EC100B81F00041B8
:1015100041EC100B01E70000000010440000F07FD8
:10152000182D4454FB21F93F182D4454FB21F9BFD9
:101530000000DC3F0000203E0000F33F0000000000
:10154000000000000000F03F0000E63F0000000047
:101550000000000000000040008003400000000088
:10156000000000000000F83F000000000000F0BF95
:10157000DA070000900700001A070000D2060000FA
:1015800070B56B4E2DED040B2DED028B82B0DDF8A6
:101590001CC0DDE905235C422CF000411C4341EAFC
:1015A000D474049D22F00040B44205D86C422C4310
:1015B00040EAD474B4420BD99DED061B9DED040B9B
:1015C00002B0BDEC028B04B0BDE8704000F056B92B
:1015D000ACF14054A4F17F641C430BD0022404EA14
:1015E000AC7444EAD27405439FED538B9FED542BAA
:1015F00007D015E09DED040B51EC100B00F012FA32
:1016000042E0002C11BF012C9DED040B02B0BDEC9B
:10161000028B04BF04B070BD022C38D0032C3BD029
:101620000B439FED491B9FED4A0B0AD0B14218D1E5
:10163000B04209D121F0804120F08040079105900F
:101640000FE0002A15DA10E0434B7B44002C08BF62
:1016500093ED000B0DD0012C10D0022C17D0032CD1
:101660001AD0B0421DD1002A03DAB0EE410AF0EEE2
:10167000610A02B0BDEC028B04B070BD93ED000BAB
:1016800051EC100B81F0004141EC100BF1E7B0EE92
:10169000480AF0EE680AECE7B0EE420AF0EE620AA1
:1016A000E7E7401A00153C28C8BF8DED000B19DC98
:1016B000BCF1000FBEBF10F13C0F9FED290B8DED6B
:1016C000000B0FDB9DED060B53EC102B9DED040B77
:1016D00051EC100BFEF785FF00F0E4F900F0A2F9E1
:1016E000CDE90001002C08BF9DED000BC1D0012CFD
:1016F00010D0022C9FED1C0B53EC102B9DED000B1A
:1017000051EC100B0DD0FEF7FCFD53EC182BFEF73F
:10171000F8FDB9E7019880F0004001909DED000BC5
:10172000A7E7FEF7EEFD53EC182BFEF7EDFDABE758
:101730000000F07F00000000182D4454FB210940F8
:10174000182D4454FB2109C0182D4454FB21F9BF26
:10175000182D4454FB21F93F020600000000000050
:101760000000000000000000075C143326A6A13C26
:1017700070B504462DED028B4D1E00EBC500B0EE9A
:10178000408AF0EE608A90ED000B35F0060017D02D
:1017900053EC182B51EC100BFEF7B9FD41EC100B7C
:1017A0006D1E04EBC50090ED001B51EC100B53ECCB
:1017B000112BFEF705FD41EC100B35F00600E7D1CB
:1017C000022D36D0042D1CD0062D1CBFBDEC028B83
:1017D00070BD53EC182B51EC100BFEF798FD94EDF7
:1017E0000A1B53EC112BFEF7EBFC53EC182BFEF706
:1017F0008EFD94ED081B53EC112BFEF7E1FC41EC40
:10180000100B53EC182B51EC100BFEF780FD94EDF0
:10181000061B53EC112BFEF7D3FC53EC182BFEF7F1
:1018200076FD94ED040B53EC102BFEF7C9FC41EC54
:10183000100B53EC182B51EC100BFEF768FD94EDD8
:10184000021B53EC112BFEF7BBFC53EC182BFEF7DD
:101850005EFD94ED001B53EC112BFEF7B1FCBDECCB
:10186000028B41EC100B70BD10B553EC102B51ECFA
:10187000100BFEF7A5FC41EC100B10BD10B553EC9E
:10188000112B51EC100BFEF79BFC41EC100B10BD23
:101890009FED050B10B553EC102B51EC100BFEF720
:1018A00036FD41EC100B10BD0000000000000010E0
:1018B00002E008C8121F08C1002AFAD17047704719
:1018C000002001E001C1121F002AFBD17047000077
:1018D0002DE9FF4F89B09B460446002506E02528E8
:1018E0000BD05A460B999047641C6D1C2078002839
:1018F000F5D10DB02846BDE8F08F0027B84601228B
:10190000474900E0074314F8013F203B02FA03F087
:101910000842F7D120782E2819D114F8010F47F08A
:1019200004072A280ED06FF02F022078A0F1300192
:1019300009290CD808EB880102EB410100EB0108F2
:10194000641CF2E70A98641C50F8048B0A90207813
:101950000028CED0642808D0692806D075281ED06B
:101960005A460B9990476D1C58E00A994FF00A09A6
:1019700001C90A91002802DA40422D2102E039050E
:1019800004D52B218DF82010012103E0F90704D0A4
:101990002021F7E78A4608AE0DE00021FAE70A9910
:1019A0004FF00A0901C90A91F7E74946FEF74EFDD3
:1019B000303106F8011D0028F7D1ADEB060000F12B
:1019C0002009780701D44FF00108C84502DDA8EBD3
:1019D000090000E000208046002706E008A85A46DB
:1019E000C05D0B9990476D1C7F1C5745F6DB04E0EA
:1019F00030205A460B9990476D1CB8F10001A8F1B0
:101A00000108F5DC05E016F8010B5A460B999047E2
:101A10006D1CB9F10001A9F10109F4DC641C65E752
:101A20000928010010B541EC100BFFF73DFC51EC0B
:101A3000100B10BD194A1A4990FBF2F330334B7169
:101A400090FBF2F302FB130042F2107290FBF2F3F0
:101A500030330B7190FBF2F302FB13004FF47A72F8
:101A600090FBF2F33033CB7090FBF2F302FB1300E8
:101A7000642290FBF2F330338B7090FBF2F302FBA5
:101A800013000A2290FBF2F330334B7090FBF2F319
:101A900002FB13003030087070470000A086010080
:101AA0001000002082B0CDE9000121F0004001903B
:101AB0009DED000B02B051EC100B704770B5044661
:101AC000064DE1B22846FFF7A9FB80212846FFF723
:101AD00001FB0028F9D0204670BD00000010014035
:101AE000FEF712FEFEF7DAFEFEF7D2FF00F004F872
:101AF000FFF7B2F8FEE7000070B52DED028B032171
:101B00003C20FFF779F9264C607004213C20FFF758
:101B100073F9A07007213C20FFF76EF9E0700821EF
:101B20003C20FFF769F92071A17862781D4D41EAE8
:101B30000221E960E27840EA022028614FF4004285
:101B4000914203DBA1F57F41FF39E960904203DB5D
:101B5000A0F57F40FF382861E868FEF74AFC41ECB9
:101B6000180B2869FEF745FC41EC100BB0EE481A43
:101B7000F0EE681AFFF704FD9FED0B1B51EC100B04
:101B800053EC112BFEF7C3FB9FED091B53EC112BFC
:101B9000FEF716FBFEF73EFC6861BDEC028B70BDE4
:101BA0002C00002010000020775AF01ADCA54C40D1
:101BB00000000000008066404FBB610567ACDD3F60
:101BC000182D4454FB21E93F9BF681D20B73EF3F64
:101BD000182D4454FB21F93FE2652F227F2B7A3CDC
:101BE000075C143326A6813CBDCBF07A8807703C95
:101BF000075C143326A6913CC4EB98999999C9BF08
:101C0000711623FEC671BCBF6D9A74AFF2B0B3BF3C
:101C10009AFDDE522DDEADBF2F6C6A2C44B4A2BFFC
:101C20000D5555555555D53FFF8300922449C23F68
:101C30006E204CC5CD45B73F513DD0A0660DB13F9C
:101C4000EB0D76244B7BA93F11DA22E33AAD903FAE
:101C50000000000000000000781C000800000020C8
:101C60002C000000B0180008A41C00082C00002064
:101C70000C040000C018000800000000010203046A
:101C8000010203040607080900000000000000002C
:101C9000FFFF0F0000000000000000000000000037
:041CA0000000000040
:040000050800018965
:00000001FF
