:020000040800F2
:10000000380400209D0100086B080008F106000874
:100010006908000859050008DD100008000000000C
:100020000000000000000000000000000D0A0008B1
:100030005B0500080000000011090008E90E000837
:10004000ED100008B7010008B7010008B70100086B
:10005000B7010008B7010008B7010008B7010008A0
:10006000B7010008B7010008B7010008B701000890
:10007000B7010008B7010008B7010008B701000880
:10008000B7010008B7010008B7010008B701000870
:10009000B7010008B7010008B7010008B701000860
:1000A000B7010008B7010008B7010008B701000850
:1000B000B7010008B7010008B7010008B701000840
:1000C000B7010008B7010008B7010008B701000830
:1000D000B7010008490F0008B7010008B701000880
:1000E000B7010008B7010008B7010008B701000810
:1000F000B7010008B7010008B7010008B701000800
:10010000B7010008B7010008B7010008B7010008EF
:10011000B7010008B7010008B7010008B7010008DF
:10012000B7010008B7010008B7010008B7010008CF
:10013000B7010008B7010008B7010008B7010008BF
:10014000B7010008B7010008B7010008B7010008AF
:10015000B7010008B7010008B7010008B70100089F
:10016000B7010008B7010008B7010008B70100088F
:10017000B7010008B7010008B7010008B70100087F
:10018000B7010008B7010008DFF80CD000F062F9F1
:10019000004800473513000838040020064880470F
:1001A00006480047FEE7FEE7FEE7FEE7FEE7FEE75C
:1001B000FEE7FEE7FEE7FEE7ED0E00088901000816
:1001C0002DE9FE4F81EA030404F0004421F00041D0
:1001D00000944FF0000B23F0004350EA01045ED07E
:1001E00052EA03045BD0C3F30A54C1F30A552C440A
:1001F000A4F2F3340194A0FB0254C1F3130141F4BF
:100200008011C3F3130343F4801301FB024400FB8A
:10021000034E840A970A44EA815447EA8357A4FBB1
:10022000076802958D0A05FB07854FEA932C04FBAE
:100230000C542705029D4FEA065847EA1637B5EBDE
:1002400008056EEB070C870E920E47EA811742EA0B
:100250008312A7FB0201B6EB0B0164EB00042B0D2C
:1002600043EA0C335E1844EB1C50DA465146E7FB78
:100270000201C5F313044FEA0B3343EA14534FEA68
:100280000432019C43EA0603A4F10C040294009C8E
:10029000CDE900B400F08FF803B0BDE8F08F002086
:1002A0000146F9E70EB5C10F80EAE0700844CA07BD
:1002B000002140F233438DE80E000A460B4600F061
:1002C0007AF803B000BD01F0004330B421F00041E2
:1002D00050EA010206D00A0DA2F56072C1F31301C3
:1002E000002A02DC30BC00207047440F44EAC104FD
:1002F000C100E01830BC00EBC25000F016B830B5B9
:100300000B46014600202022012409E021FA02F5D3
:100310009D4205D303FA02F5491B04FA02F528446D
:10032000151EA2F10102F1DC30BD0029A8BF704703
:10033000401C490008BF20F00100704710B4B0FA1B
:1003400080FC00FA0CF050EA010404BF10BC7047B6
:1003500049B1CCF1200421FA04F411FA0CF118BFD0
:10036000012121430843A3EB0C01CB1D4FEA00619F
:100370004FEA102042BF002010BC704700EBC35072
:1003800010440029A4BF10BC7047401C490008BF9E
:1003900020F0010010BC704710B5141E73F100046A
:1003A00008DA401C41F1000192185B411A4301D167
:1003B00020F0010010BD2DE9F04D92469B4611B191
:1003C000B1FA81F202E0B0FA80F22032904600F0F9
:1003D00053F804460F4640EA0A0041EA0B0153462F
:1003E0005A46084313D0114653EA010019D0C8F108
:1003F0004002504600F04FF805460E46504659461A
:10040000424600F039F8084305D0012004E02046B8
:100410003946BDE8F08D0020054346EAE0762C43DE
:1004200037430A986305E40AA0EB08000022FD0A9E
:1004300044EA47540A3002D500200146E9E70105A5
:1004400010196941DDE9084500196941BDE8F04D21
:10045000A2E70000064C074D06E0E06840F001030B
:1004600094E8070098471034AC42F6D3FFF790FEAB
:10047000B4130008D4130008202A04DB203A00FA41
:1004800002F1002070479140C2F1200320FA03F3EB
:10049000194390407047202A04DB203A21FA02F0E9
:1004A0000021704721FA02F3D040C2F120029140AE
:1004B000084319467047000030B587B0012102207B
:1004C00000F028FA0121480500F032FA1F4D0422FD
:1004D0000621284600F0FCF804220721284600F0F7
:1004E000F7F801218DF81A108DF81B1002248DF8F1
:1004F00019408DF818404021059105A9284600F0C3
:10050000A9F88DF818408020059005A9284600F02C
:10051000A1F86002ADF80E000001ADF810000C4823
:1005200001904BF6FF70ADF80A000020ADF808000E
:100530007820ADF80C00074C01A9204600F016F910
:100540000121204600F0EDF807B030BD0004024064
:10055000801A060000540040FEE7704770B586B070
:100560000121084600F0D6F90121102000F0EEF933
:1005700000248DF8164001208DF8170002258DF813
:1005800015508DF81450400204901C4E04A93046BA
:1005900000F060F88DF814506902049104A9304607
:1005A00000F058F807220A21304600F091F807229F
:1005B0000921304600F08CF84FF4E1300090ADF89E
:1005C0000440ADF80640ADF80840ADF80C400C20F2
:1005D000ADF80A000A4C6946204600F019FD00F00B
:1005E00045F9012240F22551204600F0F6FC012198
:1005F000204600F0BFFC06B070BD000000000240C5
:100600000010014001B5009800280BD04CF2503189
:100610000020401C8842FCD30098401E00900098A7
:100620000028F5D108BD000010B50446214602A0FF
:1006300000F06CFD204610BD494943206572726F81
:1006400072206F636375722C20636F64653D25644F
:10065000000000002DE9F041002201274FF0030CBB
:1006600007FA02F50B682B40AB422CD10668530009
:100670000CFA03F4A64306600E79D0F800809E4081
:1006800046EA080606600E79012E01D0022E12D12C
:100690008668A64386604E79D0F808809E4046EA78
:1006A000080686604668AE43466045688E79964087
:1006B000B6B235434560C568A543C560CC799C405A
:1006C000C3681C43C460521C102AC9D3BDE8F08122
:1006D00010B54B07DB0E9A40C90800EB8100016A98
:1006E0000F249C40A1430162016A1143016210BDC5
:1006F000FEE7002904D0018841F480610180704741
:10070000018821F4806101807047034600209A8AA5
:100710001B8B1B041A4322F07F42914300D101201E
:100720007047002904D0018841F001010180704721
:10073000018821F0010101807047002904D001885F
:1007400041F4807101807047018821F4807101803B
:100750007047002904D0018841F40071018070477E
:10076000018821F400710180704700007FB50446C4
:100770000D46A08820F03F06684600F0F5F8029884
:100780002749B0FBF1F189B20E43A680228822F0FE
:1007900001022280234B2A689A4209D85200B0FBFA
:1007A000F2F080B2042800D20420491C218423E006
:1007B000EB88A3F53F46FF3E0BD002EBC20303EBF1
:1007C0000212B0FBF2F080B240F48040020506D085
:1007D00007E002EB4202B0FBF2F080B2F6E740F035
:1007E000010040F400404FF4967251434FF47A7286
:1007F000B1FBF2F1491C2184A083208840F0010064
:10080000208020884FF6F5310840A9886A89114375
:1008100001432180A8892989084320817FBD0000E8
:1008200040420F00A0860100008AC0B27047002A33
:1008300002D041F0010101E001F0FE0101827047A8
:100840000182704710B50B223121A62000F0DAFAA0
:1008500008222D21A62000F0D5FA80222E21BDE805
:100860001040A62000F0CEBAFEE7704708B54FF45E
:10087000A06000F043F825208DF8000001208DF8DD
:1008800001008DF802008DF80300684600F002F8C0
:1008900008BD000030B50F23C27801250178002A79
:1008A0001FD0154A126802F4E062C2F5E062C2F39A
:1008B0000722C2F10404D3404278A24084781C404D
:1008C0001443220101F1E02181F80024007800F0B6
:1008D0001F018D404009800000F1E020C0F8005168
:1008E00030BD01F01F0085404809800000F1E02084
:1008F000C0F8805130BD00000CED00E00249084313
:1009000002490860704700000000FA050CED00E0A5
:1009100070470000054A002903D0116801431160A7
:100920007047116881431160704700003038024001
:10093000054A002903D0116801431160704711680E
:10094000814311607047000040380240054A002989
:1009500003D0116801431160704711688143116031
:10096000704700004438024070B5244B196801F00C
:100970000C01234C00291ED0224E04291DD0082929
:100980001DD00460196801F0F00109091E4A545C89
:100990000168E14041601C6804F4E054A40A145D5D
:1009A00021FA04F484601B6803F460435B0BD25C9F
:1009B000D140C16070BD0460E4E70660E2E70F4A21
:1009C000121F1168C1F38055116801F03F0135B164
:1009D000B6FBF1F11468C4F38814614305E0B4FB7D
:1009E000F1F11468C4F3881461431268C2F3014240
:1009F000521C5200B1FBF2F10160C3E7083802401B
:100A00000024F40040787D010000002070470000C1
:100A100070B54A4D4121284600F05CFB0A20FFF7E3
:100A2000F1FD4421284600F055FB0A20FFF7EAFDBE
:100A30005821284600F04EFB0A20FFF7E3FD4C2129
:100A4000284600F047FB0A20FFF7DCFD332128464B
:100A500000F040FB0A20FFF7D5FD3421284600F0C6
:100A600039FB0A20FFF7CEFD3521284600F032FB86
:100A70000A20FFF7C7FD3A21284600F02BFB0A2089
:100A8000FFF7C0FD5821284600F024FB0A20FFF79D
:100A9000B9FD3D21284600F01DFB0A20FFF7B2FDFD
:100AA000274CE06800F04EF80A20FFF7ABFD672105
:100AB000284600F00FFB0A20FFF7A4FD5921284625
:100AC00000F008FB0A20FFF79DFD3D21284600F0BD
:100AD00001FB0A20FFF796FD206900F033F80A2099
:100AE000FFF790FD6721284600F0F4FA0A20FFF78F
:100AF00089FD5A21284600F0EDFA0A20FFF782FD11
:100B00003D21284600F0E6FA0A20FFF77BFD6069E8
:100B100000F018F80A20FFF775FD6721284600F05D
:100B2000D9FA0A20FFF76EFD0D21284600F0D2FA0F
:100B30002846BDE870400A2100F0CCBA0010014000
:100B40001000002070B50446B4F5004F02DBA4F598
:100B50007F44FF3C244D002C08DA64422D212846B6
:100B600000F0B8FA0220FFF74DFD06E02B212846E1
:100B700000F0B0FA0220FFF745FD2046FFF792FB98
:100B80009FED1A1B53EC112BFFF71AFBFFF79BFB92
:100B900000EE100ABDEEC00A10EE100A00F080FB55
:100BA000144C2846E17800F095FA0A20FFF72AFD58
:100BB0002E21284600F08EFA0A20FFF723FDA178A7
:100BC000284600F087FA0A20FFF71CFD61782846C6
:100BD00000F080FA0A20FFF715FD21782846BDE8CD
:100BE000704000F077BA0000001001403333333317
:100BF00033330F40100000200CB500220192009208
:100C00002749086840F4803008604FF4A043086822
:100C100000F4003000900198401C0190009810B939
:100C200001989842F3D10868800302D50120009012
:100C300000E000920098012831D119484030026844
:100C400042F0805202601748026842F4404202605B
:100C50001348083002680260026842F400420260F1
:100C6000026842F4A0520260021F0F4B13600A6830
:100C700042F080720A600A689201FCD50B4A40F289
:100C800005711160016821F003010160016841F004
:100C9000020101600168C1F381010229FAD10CBD92
:100CA000003802400070004019544007003C0240E8
:100CB0002DE9F04707468946DFF834810121404697
:100CC000FFF73BFD4C4D4B4EAE604C4C03E0A9682A
:100CD000491EA96071B121464046FFF716FD012863
:100CE000F5D1002239464046FFF7A1FDAE60DFF89E
:100CF00010A108E0BDE8F0470520FFF795BCA96802
:100D0000491EA96079B151464046FFF7FEFC012813
:100D1000F5D14946C1464846FFF792FDDFF8E0802D
:100D200008F1020808E0BDE8F0470620FFF77CBCA8
:100D3000A968491EA96061B141464846FFF7E5FC34
:100D40000128F5D1C84601214046FFF7F6FCAE6008
:100D500008E0BDE8F0470720FFF766BCA968491E18
:100D6000A96071B121464046FFF7CFFC0128F5D1BB
:100D7000012239464046FFF75AFDAE601F4C641C05
:100D800008E0BDE8F0470820FFF74EBCAA68521EF5
:100D9000AA606AB121464046FFF7B7FC0128F5D1A9
:100DA00000214046FFF7A5FCAE60144C3F3408E03C
:100DB000BDE8F0470920FFF737BCAA68521EAA60B9
:100DC00082B121464046FFF7A0FC0128F5D14046FC
:100DD000FFF72AFD044601214046FFF7BAFC2046F2
:100DE000BDE8F087BDE8F0470A20FFF71DBC000012
:100DF00000540040FFFF0F0010000020010003001E
:100E0000820007002DE9F047824689469046314E20
:100E100001213046FFF791FC304C2F4DA560304F3B
:100E200003E0A068401EA06068B139463046FFF775
:100E30006CFC0128F5D1002251463046FFF7F7FC43
:100E4000A560284F08E0BDE8F0470120FFF7ECBBA4
:100E5000A168491EA16069B139463046FFF755FCCB
:100E60000128F5D149463046FFF7EAFC37461D4ECA
:100E7000B61C08E0BDE8F0470220FFF7D5BBA1682B
:100E8000491EA16059B131463846FFF73EFC0128A2
:100E9000F5D141463846FFF7D3FCA56008E0BDE830
:100EA000F0470320FFF7C0BBA068401EA06060B100
:100EB00031463846FFF729FC0128F5D10121384693
:100EC000FFF747FC0020BDE8F087BDE8F0470420AD
:100ED000FFF7AABB00540040FFFF0F0010000020E6
:100EE00001000300820007007047000010B512489F
:100EF000016841F4700101601048016841F001018E
:100F000001600E4A00210832116002680C4B1A4041
:100F10000260031D0B4A1A60026822F480220260FC
:100F200006480C300160FFF767FE03494FF0006090
:100F30008039086010BD000088ED00E000380240F4
:100F4000FFFFF6FE1030002410B5094C40F2255189
:100F5000204600F022F8002808D0204600F0B6F81D
:100F6000C1B22046BDE8104000F0B4B810BD00008A
:100F700000100140002904D0818941F40051818191
:100F80007047818921F40051818170470246002019
:100F900012880A4200D00120704770B5002440F644
:100FA0006A12C1F3421301F01F05012606FA05F289
:100FB000012B0CD0022B0DD0838A1340090A8E40DE
:100FC000008830400BB100B10124204670BD8389F8
:100FD0001340F3E7038A1340F0E710B540F66A13B5
:100FE000C1F3421301F01F040121A140012B07D0DE
:100FF000022B07D014303AB102680A43026010BDD8
:101000000C30F8E71030F6E702688A43026010BD42
:101010007FB504460D46208A20F44051E8880843F5
:101020002082A08941F20C618843A9882A89114352
:101030006A8902431143A181A08A20F44071A889E2
:101040000843A0826846FFF78FFC1E48844202D006
:101050001D48844201D1039800E00298A189090447
:1010600008D500EBC00101EB001029684900B0FB76
:10107000F1F007E000EBC00101EB001029688900E6
:10108000B0FBF1F06422B0FBF2F109010B096FF043
:1010900018056B4300EB8300A3891D044FF0320356
:1010A00007D503EBC000B0FBF2F000F007000843E7
:1010B00006E003EB0010B0FBF2F000F00F00084375
:1010C00020817FBD00100140001401408088C0F3E2
:1010D00008007047C1F3080181807047FEE70000F7
:1010E0000149002008607047082C004010B57F209F
:1010F00000F004F8BDE81040FFF7F2BF024900F02D
:101100007F00086070470000002C00400FB4054BC2
:1011100010B503A9044A029800F018F810BC5DF855
:1011200014FB0000111300082800002002E008C88A
:10113000121F08C1002AFAD170477047002001E051
:1011400001C1121F002AFBD1704700002DE9FF4F9B
:1011500089B09B460446002506E025280BD05A4658
:101160000B999047641C6D1C20780028F5D10DB0B8
:101170002846BDE8F08F0027B8460122474900E025
:10118000074314F8013F203B02FA03F00842F7D16D
:1011900020782E2819D114F8010F47F004072A28C7
:1011A0000ED06FF02F022078A0F1300109290CD861
:1011B00008EB880102EB410100EB0108641CF2E737
:1011C0000A98641C50F8048B0A9020780028CED02E
:1011D000642808D0692806D075281ED05A460B9975
:1011E00090476D1C58E00A994FF00A0901C90A910D
:1011F000002802DA40422D2102E0390504D52B21D6
:101200008DF82010012103E0F90704D02021F7E731
:101210008A4608AE0DE00021FAE70A994FF00A0964
:1012200001C90A91F7E74946FFF769F8303106F836
:10123000011D0028F7D1ADEB060000F12009780769
:1012400001D44FF00108C84502DDA8EB090000E019
:1012500000208046002706E008A85A46C05D0B998A
:1012600090476D1C7F1C5745F6DB04E030205A4642
:101270000B9990476D1CB8F10001A8F10108F5DC4D
:1012800005E016F8010B5A460B9990476D1CB9F111
:101290000001A9F10109F4DC641C65E709280100DB
:1012A000194A1A4990FBF2F330334B7190FBF2F379
:1012B00002FB130042F2107290FBF2F330330B7119
:1012C00090FBF2F302FB13004FF47A7290FBF2F3FF
:1012D0003033CB7090FBF2F302FB1300642290FBDF
:1012E000F2F330338B7090FBF2F302FB13000A220F
:1012F00090FBF2F330334B7090FBF2F302FB1300E0
:101300003030087070470000A086010010000020F7
:1013100070B50446064DE1B22846FFF7DBFE80219A
:101320002846FFF733FE0028F9D0204670BD0000A4
:1013300000100140FFF712F9FFF7BEF8FFF782FA3D
:1013400000F004F8FFF764FBFEE7000010B532215F
:10135000A620FFF7ADFC154C20703321A620FFF727
:10136000A7FC60703421A620FFF7A2FCA0703521F5
:10137000A620FFF79DFCE0703621A620FFF798FC21
:1013800020713721A620FFF793FC607121786278E5
:1013900001EB02220649CA60A278E37802EB03223D
:1013A0000A61227902EB0020486110BD2C00002068
:1013B00010000020D4130008000000202C000000C2
:1013C0002C110008001400082C0000200C04000060
:1013D0003C110008000000000102030401020304A4
:1013E000060708090000000000000000FFFF0F00D2
:1013F00000000000000000000000000000000000ED
:040000050800018965
:00000001FF
